:020000020000FC
:040000000C94540008
:04005C000C94900070
:1000A4000C94920055270FEF0DBF01E20EBF0027FD
:1000B40003E001B9002702B905E005BD01E005BB75
:1000C40001E000936E0001EC0093A10000E20093B4
:1000D400190000E20093720078944030F1F3F89430
:1000E40059D02BD036D02FD078945130F1F7F894E2
:1000F40045D078945230F1F7F8943AD03E3018F065
:100104000DEF02B903C00EEF02B9F89455273CD0A5
:1001140078944130F1F34427F894DECF4395189551
:100124002091A6003091A70053950F9300270093C8
:10013400A5000093A4000F9118950F9301E000937C
:100144000A010F9108950F93002700930A010F915C
:1001540008950F93002700930B0101E000930B0116
:10016400000000000000002700930B010F91089588
:100174000F9301EC0093A1000F9108950F9301E8F0
:100184000093A1000F9108950F9301E000936E0076
:100194000F9108950F93002700936E000F91089517
:00000001FF
